:100000000C942A000C9447000C9447000C94470071
:100010000C9447000C9447000C9447000C94470044
:100020000C9447000C9447000C9447000C94470034
:100030000C9447000C942F070C9447000C94FC067A
:100040000C9447000C9447000C9447000C94470014
:100050000C94470011241FBECFE5D8E0DEBFCDBF12
:1000600011E0A0E6B0E0ECE4F2E402C005900D92ED
:10007000AC39B107D9F711E0ACE9B1E001C01D928C
:10008000AA3AB107E1F70E948E200C9424210C9427
:100090000000EF92FF920F931F937B018C0120E0F1
:1000A00030E040E05FE40E94F50388238CF0C80153
:1000B000B70120E030E040E05FE40E94C1010E940F
:1000C000B3049B01AC01205030404040504806C072
:1000D000C801B7010E94B3049B01AC01B901CA0178
:1000E0001F910F91FF90EF900895A0E0B0E0EBE733
:1000F000F0E00C94ED20DC012B01FA019C91923090
:1001000008F439C1EB018881823008F433C194309E
:1001100069F4843009F02FC111969C91119789815F
:10012000981709F428C1A0E6B0E025C1843009F48D
:1001300021C18230A9F4923009F01DC19A01AD01AC
:1001400088E0EA010990AE01E90109929E0181501F
:10015000C1F7E201898111969C918923818308C1AD
:10016000923009F407C112962D903C901397EB0141
:100170008A819B811496AD90BD90CD90DC901797AD
:10018000EC80FD800E811F819101281B390BB90184
:1001900037FF04C066277727621B730B6032710537
:1001A0000CF061C0121613066CF537014801062EDB
:1001B00004C096948794779467940A94D2F721E0C8
:1001C00030E040E050E004C0220F331F441F551FB1
:1001D0006A95D2F721503040404050402E213F21B7
:1001E00040235123211531054105510521F021E01E
:1001F00030E040E050E079018A01E628F72808293C
:1002000019293CC0232BD1F1260E371E350146019A
:10021000062E04C096948794779467940A94D2F734
:1002200021E030E040E050E004C0220F331F441FC3
:10023000551F6A95D2F721503040404050402A2146
:100240003B214C215D21211531054105510521F04E
:1002500021E030E040E050E059016A01A628B728CB
:10026000C828D9280BC0821593052CF01C01AA249C
:10027000BB24650103C0EE24FF24870111969C91E5
:10028000D20111968C91981709F445C0992339F041
:10029000A80197012A193B094C095D0906C0A6016E
:1002A00095012E193F09400B510B57FD08C01182D3
:1002B0003382228224833583468357831DC081E0A5
:1002C00081833382228288279927DC01821B930B4A
:1002D000A40BB50B84839583A683B7830DC0220F2F
:1002E000331F441F551F24833583468357838281E0
:1002F000938101979383828324813581468157813D
:10030000DA01C9010197A109B1098F5F9F4FAF4F72
:10031000BF4328F30BC0918333822282EA0CFB1C7B
:100320000C1D1D1DE482F5820683178383E0808304
:10033000248135814681578157FF1AC0C901AA27F8
:1003400097FDA095BA2F81709070A070B0705695EF
:10035000479537952795822B932BA42BB52B848318
:100360009583A683B7838281938101969383828349
:10037000DF0101C0D201CD01CDB7DEB7E2E10C94BF
:100380000921A0E2B0E0E7ECF1E00C94F9206983E8
:100390007A838B839C832D833E834F835887E9E048
:1003A000EE2EF12CEC0EFD1ECE010196B7010E943F
:1003B0002B068E010F5E1F4FCE010596B8010E94DD
:1003C0002B068A8991E089278A8BC701B801AE0183
:1003D000475E5F4F0E9475000E945605A096E6E0BA
:1003E0000C941521A0E2B0E0E8EFF1E00C94F920C4
:1003F00069837A838B839C832D833E834F835887C5
:10040000F9E0EF2EF12CEC0EFD1ECE010196B701A6
:100410000E942B068E010F5E1F4FCE010596B8017C
:100420000E942B06C701B801AE01475E5F4F0E94D4
:1004300075000E945605A096E6E00C941521A0E2F6
:10044000B0E0E5E2F2E00C94ED2069837A838B83DF
:100450009C832D833E834F835887CE010196BE0136
:10046000675F7F4F0E942B06CE010596BE016F5E2F
:100470007F4F0E942B069985923088F089898230BF
:10048000C8F0943019F4823051F404C0843029F457
:10049000923081F480E690E0C6C0923049F420E0CA
:1004A0009A858A89981321E02A87CE010996BBC0D4
:1004B000823049F420E09A858A89981321E02A8BBA
:1004C000CE014196B0C02D843E844F8458886D88FB
:1004D0007E888F88988CEE24FF248701AA24BB2471
:1004E000650140E050E060E070E0E0E0F0E0C10174
:1004F00081709070892BE9F0E60CF71C081D191D1E
:100500009A01AB012A0D3B1D4C1D5D1D80E090E062
:10051000A0E0B0E0E614F7040805190520F481E036
:1005200090E0A0E0B0E0BA01A901480F591F6A1F8E
:100530007B1FAA0CBB1CCC1CDD1C97FE08C081E0F5
:1005400090E0A0E0B0E0A82AB92ACA2ADB2A3196B6
:10055000E032F10549F0660C771C881C991C569412
:10056000479437942794C3CFFA85EA892B893C892D
:100570008B859C85280F391F2E5F3F4F17C0CA01FE
:1005800081709070892B61F016950795F794E79428
:1005900080E090E0A0E0B0E8E82AF92A0A2B1B2BC3
:1005A00076956795579547952F5F3F4F77FDE7CF36
:1005B0000CC0440F551F661F771F17FD4160EE0CDE
:1005C000FF1C001F111F21503040403090E05907A0
:1005D00090E0690790E4790760F32B8F3C8FDB0193
:1005E000CA018F779070A070B07080349105A1051A
:1005F000B10561F447FD0AC0E114F10401051105DC
:1006000029F0405C5F4F6F4F7F4F40781A8EFE1786
:1006100011F081E08A8F4D8F5E8F6F8F78A383E01A
:10062000898FCE0149960E945605A096E2E10C946E
:100630000921A8E1B0E0EFE1F3E00C94F520698333
:100640007A838B839C832D833E834F835887B9E0C5
:10065000EB2EF12CEC0EFD1ECE010196B7010E948F
:100660002B068E010F5E1F4FCE010596B8010E942A
:100670002B062985223008F47EC03989323010F4E7
:10068000B8017CC08A859A8989278A87243011F02D
:10069000223031F4231709F06EC060E670E06EC0BE
:1006A000343039F41D861E861F86188A1C861B86E8
:1006B00004C0323021F484E08987B7015FC02B8504
:1006C0003C858B899C89281B390B3C872B87ED84C3
:1006D000FE840F851889AD88BE88CF88D88CEA142F
:1006E000FB040C051D0540F4EE0CFF1C001F111F40
:1006F000215030403C872B8720E030E040E050E044
:1007000080E090E0A0E0B0E460E070E0EA14FB0478
:100710000C051D0540F0282B392B4A2B5B2BEA18C2
:10072000FB080C091D09B695A79597958795EE0CC2
:10073000FF1C001F111F6F5F7F4F6F31710531F775
:10074000DA01C9018F779070A070B0708034910584
:10075000A105B10561F427FD0AC0E114F10401050A
:10076000110529F0205C3F4F4F4F5F4F20782D87B8
:100770003E874F87588BBE01675F7F4FCB010E943A
:1007800056056896EAE00C941121A8E1B0E0EBEC84
:10079000F3E00C94F92069837A838B839C832D8307
:1007A0003E834F83588789E0E82EF12CEC0EFD1E26
:1007B000CE010196B7010E942B068E010F5E1F4FDE
:1007C000CE010596B8010E942B068985823040F043
:1007D0008989823028F0C701B8010E94A30601C0B0
:1007E0008FEF6896E6E00C941521A8E1B0E0EBEFFE
:1007F000F3E00C94F92069837A838B839C832D83A7
:100800003E834F83588789E0E82EF12CEC0EFD1EC5
:10081000CE010196B7010E942B068E010F5E1F4F7D
:10082000CE010596B8010E942B068985823040F0E2
:100830008989823028F0C701B8010E94A30601C04F
:100840008FEF6896E6E00C941521A8E1B0E0EBE2AA
:10085000F4E00C94F92069837A838B839C832D8345
:100860003E834F83588789E0E82EF12CEC0EFD1E65
:10087000CE010196B7010E942B068E010F5E1F4F1D
:10088000CE010596B8010E942B068985823040F082
:100890008989823028F0C701B8010E94A30601C0EF
:1008A00081E06896E6E00C941521A8E0B0E0EBE565
:1008B000F4E00C94F6209B01AC0183E08983DA011B
:1008C000C9018827B7FD83959927AA27BB27B82E8A
:1008D000211531054105510519F482E089833AC09B
:1008E0008823A9F0203080E0380780E0480780E8BE
:1008F000580729F460E070E080E09FEC30C0EE24FF
:10090000FF248701E21AF30A040B150B02C07901D8
:100910008A018EE1C82ED12CDC82CB82ED82FE8250
:100920000F831887C801B7010E94070501971816A1
:10093000190684F4082E04C0EE0CFF1C001F111FC2
:100940000A94D2F7ED82FE820F831887C81AD90A5B
:10095000DC82CB82BA82CE0101960E94560528968F
:10096000E9E00C941221ACE0B0E0E9EBF4E00C9487
:10097000FD2069837A838B839C83CE010196BE011F
:100980006B5F7F4F0E942B068D81823061F1823038
:1009900050F1843021F48E81882351F12EC02F81B3
:1009A000388537FD20C06E812F3131051CF066235C
:1009B000F9F023C08EE190E0821B930B29853A85E4
:1009C0004B855C8504C056954795379527958A9544
:1009D000D2F76623B1F050954095309521953F4F61
:1009E0004F4F5F4F0EC020E030E040E050E009C0C4
:1009F0002FEF3FEF4FEF5FE704C020E030E040E033
:100A000050E8B901CA012C96E2E00C941921EF924A
:100A1000FF920F931F937B018C0180E0E81680E02A
:100A2000F80681E0080780E0180788F48FEFE816E1
:100A3000F1040105110531F028F088E090E0A0E014
:100A4000B0E017C080E090E0A0E0B0E012C080E02D
:100A5000E81680E0F80680E0080781E0180728F033
:100A600088E190E0A0E0B0E004C080E190E0A0E088
:100A7000B0E020E230E040E050E0281B390B4A0BA8
:100A80005B0B04C016950795F794E7948A95D2F707
:100A9000F701E859FF4F8081281B310941095109AD
:100AA000C9011F910F91FF90EF900895DF92EF928F
:100AB000FF920F931F93FC01E480F580068117815C
:100AC000D1808081823048F480E090E0A0E1B0E005
:100AD000E82AF92A0A2B1B2BA5C0843009F49FC0F1
:100AE000823021F4EE24FF24870105C0E114F104D3
:100AF0000105110519F4E0E0F0E096C06281738110
:100B00009FEF623879070CF05BC022E83FEF261BAD
:100B1000370B2A3131052CF020E030E040E050E086
:100B20002AC0B801A701022E04C076956795579593
:100B300047950A94D2F781E090E0A0E0B0E004C0CD
:100B4000880F991FAA1FBB1F2A95D2F70197A109E9
:100B5000B1098E219F21A023B1230097A105B105E2
:100B600021F081E090E0A0E0B0E09A01AB01282BF9
:100B7000392B4A2B5B2BDA01C9018F779070A0705B
:100B8000B07080349105A105B10539F427FF09C083
:100B9000205C3F4F4F4F5F4F04C0215C3F4F4F4F92
:100BA0005F4FE0E0F0E02030A0E03A07A0E04A0725
:100BB000A0E45A0710F0E1E0F0E079018A0127C0D3
:100BC0006038710564F5FB01E158FF4FD801C7019A
:100BD0008F779070A070B07080349105A105B10539
:100BE00039F4E7FE0DC080E490E0A0E0B0E004C07E
:100BF0008FE390E0A0E0B0E0E80EF91E0A1F1B1F93
:100C000017FF05C016950795F794E794319687E08E
:100C100016950795F794E7948A95D1F705C0EE24C9
:100C2000FF248701EFEFF0E06E2F67956627679549
:100C3000902F9F77D794DD24D7948E2F8695492FB8
:100C4000462B582F5D29B701CA011F910F91FF90C4
:100C5000EF90DF900895FC01DB01408151812281FA
:100C6000622F6F7770E0221F2227221F9381892F26
:100C7000880F822B282F30E0991F9927991F1196F2
:100C80009C93119721153105A9F541155105610571
:100C9000710511F482E037C082E89FEF13969C93B0
:100CA0008E9312979A01AB0167E0220F331F441F06
:100CB000551F6A95D1F783E08C930DC0220F331F27
:100CC000441F551F12968D919C911397019713966F
:100CD0009C938E931297203080E0380780E048077D
:100CE00080E4580758F314962D933D934D935C93ED
:100CF000179708952F3F310579F441155105610586
:100D0000710519F484E08C93089564FF03C081E0B9
:100D10008C9312C01C9210C02F57304013963C93F6
:100D20002E93129783E08C9387E0440F551F661F24
:100D3000771F8A95D1F7706414964D935D936D93E8
:100D40007C93179708951F93DC01FB019C919230CF
:100D500008F447C08081823008F443C0943051F4D5
:100D600011961C91843099F58181682F70E0611B88
:100D700071093FC0843021F0923031F48230B9F1F2
:100D80008181882389F12DC011961C9111978230A1
:100D9000F1F081811817D9F412962D913C91139797
:100DA000828193818217930794F028173907BCF04A
:100DB00014968D919D910D90BC91A02D248135812B
:100DC00046815781281739074A075B0718F4112312
:100DD00041F00AC082179307A407B50740F4112316
:100DE00019F061E070E005C06FEF7FEF02C060E0D6
:100DF00070E0CB011F9108951F920F920FB60F92D2
:100E000011242F933F934F935F936F937F938F930F
:100E10009F93AF93BF93EF93FF93DF93CF93CDB7A0
:100E2000DEB78091A4019091A501009729F0E0918F
:100E3000A401F091A5010995CF91DF91FF91EF9168
:100E4000BF91AF919F918F917F916F915F914F91E2
:100E50003F912F910F900FBE0F901F9018951F92EA
:100E60000F920FB60F9211242F933F934F935F93DE
:100E70006F937F938F939F93AF93BF93EF93FF9362
:100E8000DF93CF93CDB7DEB78091A2019091A301FC
:100E9000009729F0E091A201F091A3010995CF916B
:100EA000DF91FF91EF91BF91AF919F918F917F91D2
:100EB0006F915F914F913F912F910F900FBE0F90C7
:100EC0001F901895DF93CF930F92CDB7DEB7EAE26C
:100ED000F0E088E18083AAE2B0E0EAE2F0E080811D
:100EE0008B7F8C9319828981826089838981846058
:100EF00089838981877F898389818F7B89838981A0
:100F00008F7E898389818F7D8983E0E4F0E0898108
:100F100080688083E9E2F0E083E38083E0E4F0E04E
:100F20001082AAE2B0E0EAE2F0E080818F778C9351
:100F3000AAE2B0E0EAE2F0E080818F7B8C93AAE243
:100F4000B0E0EAE2F0E080818F7D8C930F90CF914A
:100F5000DF910895DF93CF930F92CDB7DEB78983EA
:100F6000EBE2F0E08081829586958770882F90E093
:100F7000817090700097A1F3ECE2F0E089818083AA
:100F80000F90CF91DF910895DF93CF93CDB7DEB768
:100F9000ECE2F0E08081CF91DF910895DF93CF9371
:100FA000CDB7DEB7EBE2F0E08081881F8827881F8D
:100FB000CF91DF910895DF93CF9300D00F92CDB7FB
:100FC000DEB79B838A8319820EC08981282F30E087
:100FD0008A819B81FC01E20FF31F80810E94AA0796
:100FE00089818F5F89838981282F30E08A819B8165
:100FF000FC01E20FF31F8081882339F70F900F90D7
:101000000F90CF91DF910895DF93CF9300D000D060
:101010000F92CDB7DEB79B838A836C834D83198291
:101020000E94CE078130E1F78981282F30E08A8144
:101030009B81FC01E20FF31F84EC97E080838981A0
:101040008F5F898399818C81981778F48981882FA3
:1010500090E09C01215030408A819B81FC01E20F8D
:10106000F31F90818D819817D9F68981282F30E060
:101070008A819B81FC01E20FF31F108289818150DC
:1010800089830F900F900F900F900F90CF91DF9169
:101090000895DF93CF9300D0CDB7DEB79A838983CD
:1010A00089819A819093A5018093A4010F900F905C
:1010B000CF91DF910895DF93CF9300D0CDB7DEB706
:1010C0009A83898389819A819093A5018093A40151
:1010D0000F900F90CF91DF910895DF93CF93CDB70D
:1010E000DEB7A3E5B0E0E3E5F0E080818F7B8C9391
:1010F000A3E5B0E0E3E5F0E08081877F8C93E2E553
:10110000F0E01082A3E5B0E0E3E5F0E080818160EB
:101110008C93A3E5B0E0E3E5F0E0808182608C93FE
:10112000A3E5B0E0E3E5F0E0808184608C93A9E57D
:10113000B0E0E9E5F0E0808181608C93CF91DF91B0
:101140000895DF93CF93CDB7DEB7A3E5B0E0E3E535
:10115000F0E080818E7F8C93A3E5B0E0E3E5F0E0E2
:1011600080818D7F8C93A3E5B0E0E3E5F0E08081A2
:101170008B7F8C93A9E5B0E0E9E5F0E080818E7F7C
:101180008C93CF91DF910895DF93CF93CDB7DEB7E6
:10119000E2E5F0E08081CF91DF910895DF93CF9376
:1011A000CDB7DEB7A3E5B0E0E3E5F0E08081806491
:1011B0008C93A3E5B0E0E3E5F0E0808188608C9358
:1011C000E2E5F0E01082A3E5B0E0E3E5F0E0808145
:1011D00081608C93A3E5B0E0E3E5F0E0808182607C
:1011E0008C93A3E5B0E0E3E5F0E080818B7F8C9306
:1011F000A3E5B0E0E3E5F0E080818F7E8C93A3E58A
:10120000B0E0E3E5F0E0808180628C9381E063E010
:1012100041E00E944D17CF91DF910895DF93CF9366
:10122000CDB7DEB7A3E5B0E0E3E5F0E080818E7FE7
:101230008C93A3E5B0E0E3E5F0E080818D7F8C93B3
:10124000A3E5B0E0E3E5F0E080818B7F8C93A9E536
:10125000B0E0E9E5F0E080818E7F8C93CF91DF9163
:101260000895DF93CF93CDB7DEB7E2E5F0E080815C
:10127000CF91DF910895DF93CF93CDB7DEB7ADE285
:10128000B0E0EDE2F0E0808180648C93ADE2B0E00C
:10129000EDE2F0E0808180628C93ADE2B0E0EDE2BF
:1012A000F0E0808180618C93ADE2B0E0EDE2F0E0AF
:1012B0008081877F8C93ADE2B0E0EDE2F0E0808149
:1012C00084608C93ADE2B0E0EDE2F0E080818E7F4F
:1012D0008C93ADE2B0E0EDE2F0E0808182608C932F
:1012E000ADE2B0E0EDE2F0E080818E7F8C93ADE284
:1012F000B0E0EDE2F0E0808180688C93CF91DF91E7
:101300000895DF93CF93CDB7DEB7ADE2B0E0EDE265
:10131000F0E0808180648C93ADE2B0E0EDE2F0E03B
:10132000808180628C93ADE2B0E0EDE2F0E08081FC
:101330008F7E8C93ADE2B0E0EDE2F0E08081877FBC
:101340008C93ADE2B0E0EDE2F0E0808184608C93BC
:10135000ADE2B0E0EDE2F0E080818E7F8C93ADE213
:10136000B0E0EDE2F0E0808182608C93ADE2B0E02D
:10137000EDE2F0E080818E7F8C93ADE2B0E0EDE2B3
:10138000F0E0808180688C93CF91DF910895DF93A6
:10139000CF930F92CDB7DEB78983EFE2F0E089817A
:1013A0008083EEE2F0E080818823DCF7EFE2F0E07A
:1013B00080810F90CF91DF910895DF93CF93CDB7C8
:1013C000DEB72F970FB6F894DEBF0FBECDBF8F8765
:1013D00080919C0190919D01FC01E859FE4F908104
:1013E0008F85981751F480919E0190919F010196ED
:1013F00090939F0180939E0109C08091A0019091DC
:10140000A10101969093A1018093A00180919E017A
:1014100090919F018430910509F095C00E94E90ADE
:101420000E943E0B80E060E00E94791187E50E94F7
:10143000D60E85E40E94D60E8CE40E94D60E8CE473
:101440000E94D60E83E40E94D60E8FE40E94D60E30
:101450008DE40E94D60E85E40E94D60E80E090E0D6
:10146000AAE7B4E48B879C87AD87BE876B857C85B4
:101470008D859E8520E030E04AEF54E40E941F02F3
:10148000DC01CB018F839887A987BA876F81788524
:1014900089859A8520E030E040E85FE30E942504DA
:1014A00088232CF481E090E09E838D833FC06F8180
:1014B000788589859A8520E03FEF4FE757E40E94C1
:1014C000C50318164CF56B857C858D859E8520E0BF
:1014D00030E040E251E40E941F02DC01CB01BC017C
:1014E000CD010E944900DC01CB019E838D830FC09A
:1014F00088EC90E09C838B838B819C810197F1F732
:101500009C838B838D819E8101979E838D838D81AA
:101510009E81009769F714C06F81788589859A85C7
:101520000E944900DC01CB019E838D838D819E81C9
:101530009A83898389819A810197F1F79A838983B4
:101540000E944B0B34C08091A0019091A101843086
:10155000910569F580E065E041E00E94251880E092
:1015600060E00E94791187E50E94D60E82E70E9412
:10157000D60E8FE60E94D60E8EE60E94D60E87E625
:101580000E94D60E80E20E94D60E80E50E94D60E02
:1015900081E60E94D60E83E70E94D60E83E70E9462
:1015A000D60E81E20E94D60E81E20E94D60E809174
:1015B0009C0190919D01019690939D0180939C01C7
:1015C0002F960FB6F894DEBF0FBECDBFCF91DF913F
:1015D0000895DF93CF93CDB7DEB783E065E041E0B8
:1015E0000E944D17AFE4B0E0EFE4F0E080818E7F21
:1015F0008C93AFE4B0E0EFE4F0E0808182608C9304
:10160000AEE4B0E0EEE4F0E0808188608C93AEE47C
:10161000B0E0EEE4F0E0808180618C93E6E4F0E0FD
:1016200083EC99E091838083ECE4F0E011821082F6
:10163000AFE4B0E0EFE4F0E0808180688C93AFE449
:10164000B0E0EFE4F0E080818F7B8C93AEE4B0E01B
:10165000EEE4F0E080818E7F8C93AEE4B0E0EEE4C7
:10166000F0E0808182608C93AFE4B0E0EFE4F0E0E2
:1016700080818B7F8C93CF91DF910895DF93CF93FF
:10168000CDB7DEB7EAE4F0E080ED97E091838083A8
:10169000CF91DF910895DF93CF93CDB7DEB7EAE422
:1016A000F0E011821082CF91DF910895DF93CF9304
:1016B000CDB7DEB70E94A31A81E00E94D61ACF915F
:1016C000DF910895DF93CF9300D000D00F92CDB774
:1016D000DEB70E942F1B0E943D1B8823E1F30E946E
:1016E000551B8D838D81882F90E0AA2797FDA095AB
:1016F000BA2FBC01CD010E945504DC01CB01BC0115
:10170000CD0126EF38E24CE950E40E941F02DC01D3
:10171000CB0189839A83AB83BC8369817A818B8176
:101720009C8120E030E040E251E40E941903DC019A
:10173000CB0189839A83AB83BC8369817A818B8156
:101740009C810E94B304DC01CB01863091051CF022
:101750000E94811A0DC069817A818B819C810E94CF
:10176000B304DC01CB018630910514F40E94921A77
:101770000F900F900F900F900F90CF91DF910895E1
:10178000DF93CF93CDB7DEB768970FB6F894DEBF7F
:101790000FBECDBF80E060E040E00E944D1780E0CA
:1017A00090E0A0E0B0E08B8B9C8BAD8BBE8B80E09B
:1017B00090E0A0E0B0E08F87988BA98BBA8B0E9455
:1017C000A31A80E090E00E94D61A80E064E041E035
:1017D0000E944D170E942F1B0E943D1B0097E1F3B2
:1017E0000E94551BAA2797FDA095BA2FBC01CD01D9
:1017F0000E945504DC01CB018B8B9C8BAD8BBE8B87
:101800006B897C898D899E8920E030E040EA50E434
:101810000E941F02DC01CB01BC01CD0120E030E0C1
:1018200040E854E40E941903DC01CB018F87988BB8
:10183000A98BBA8B188E6F85788989899A8920E05F
:1018400030E040EA50E40E942504882314F481E04B
:10185000888F81E0988D89278823D1F41F8A6F852E
:10186000788989899A8920E030E040E450E40E9438
:10187000C503181614F481E08F8B81E09F898927B6
:10188000882331F480E064E041E00E9425181DC007
:101890006F85788989899A8920E030E040E450E4B6
:1018A0000E94250488238CF46F85788989899A8918
:1018B00020E030E040E85FE30E94C50318162CF4F6
:1018C00080E064E040E00E94251880E090E0A8EC11
:1018D000B2E48B879C87AD87BE876B857C858D85C1
:1018E0009E8520E030E04AEF54E40E941F02DC01B4
:1018F000CB018F839887A987BA876F81788589857F
:101900009A8520E030E040E85FE30E9425048823C8
:101910002CF481E090E09E838D833FC06F817885B9
:1019200089859A8520E03FEF4FE757E40E94C50381
:1019300018164CF56B857C858D859E8520E030E002
:1019400040E251E40E941F02DC01CB01BC01CD0149
:101950000E944900DC01CB019E838D830FC088EC7F
:1019600090E09C838B838B819C810197F1F79C8312
:101970008B838D819E8101979E838D838D819E8136
:10198000009769F714C06F81788589859A850E94D0
:101990004900DC01CB019E838D838D819E819A83DA
:1019A000898389819A810197F1F79A83898368965F
:1019B0000FB6F894DEBF0FBECDBFCF91DF91089573
:1019C000DF93CF93CDB7DEB76C970FB6F894DEBF39
:1019D0000FBECDBF80E090E0A0EFB1E4898F9A8F79
:1019E000AB8FBC8F698D7A8D8B8D9C8D20E030E024
:1019F0004AEF54E40E941F02DC01CB018D8B9E8BC9
:101A0000AF8BB88F6D897E898F89988D20E030E00B
:101A100040E85FE30E94250488232CF481E090E0F5
:101A20009C8B8B8B3FC06D897E898F89988D20E040
:101A30003FEF4FE757E40E94C50318164CF5698D38
:101A40007A8D8B8D9C8D20E030E040E251E40E9445
:101A50001F02DC01CB01BC01CD010E944900DC0169
:101A6000CB019C8B8B8B0FC088EC90E09A8B898B81
:101A700089899A890197F1F79A8B898B8B899C893F
:101A800001979C8B8B8B8B899C89009769F714C07D
:101A90006D897E898F89988D0E944900DC01CB0178
:101AA0009C8B8B8B8B899C89988B8F878F85988952
:101AB0000197F1F7988B8F8780E063E041E00E9407
:101AC0004D1780E062E041E00E944D1781E061E047
:101AD0000E947F1988E30E94F10D81E00E94F10DC0
:101AE00080E090E0A0E0B0E48B879C87AD87BE8764
:101AF0006B857C858D859E8520E030E04AEF54E43F
:101B00000E941F02DC01CB018F839887A987BA87C7
:101B10006F81788589859A8520E030E040E85FE331
:101B20000E94250488232CF481E090E09E838D831D
:101B30003FC06F81788589859A8520E03FEF4FE728
:101B400057E40E94C50318164CF56B857C858D857E
:101B50009E8520E030E040E251E40E941F02DC015B
:101B6000CB01BC01CD010E944900DC01CB019E8369
:101B70008D830FC088EC90E09C838B838B819C814C
:101B80000197F1F79C838B838D819E8101979E83C2
:101B90008D838D819E81009769F714C06F81788550
:101BA00089859A850E944900DC01CB019E838D8343
:101BB0008D819E819A83898389819A810197F1F72A
:101BC0009A83898386E00E94F10D8DE00E94F10DD9
:101BD0006C960FB6F894DEBF0FBECDBFCF91DF91EC
:101BE0000895DF93CF93CDB7DEB769970FB6F8941A
:101BF000DEBF0FBECDBF898F80E062E040E00E9473
:101C0000251881E0698D0E94C01980E063E041E001
:101C10000E94251880E090E0AAEFB3E48D8B9E8BA4
:101C2000AF8BB88F6D897E898F89988D2BEA3AEAC0
:101C30004AE250E40E941F02DC01CB01898B9A8B9F
:101C4000AB8BBC8B69897A898B899C8920E030E0D9
:101C500040E85FE30E94250488231CF481E0888B20
:101C600091C069897A898B899C8920E030E04FE7AF
:101C700053E40E94C50318160CF07BC06D897E8961
:101C80008F89988D20E030E04AE754E40E941903E0
:101C9000DC01CB018C879D87AE87BF876C857D85F6
:101CA0008E859F8520E030E04AEF54E40E941F02B9
:101CB000DC01CB0188879987AA87BB8768857985EE
:101CC0008A859B8520E030E040E85FE30E942504A0
:101CD00088232CF481E090E09F838E833FC0688549
:101CE00079858A859B8520E03FEF4FE757E40E9486
:101CF000C50318164CF56C857D858E859F8520E083
:101D000030E040E251E40E941F02DC01CB01BC0143
:101D1000CD010E944900DC01CB019F838E830FC05F
:101D200088EC90E09D838C838C819D810197F1F7F5
:101D30009D838C838E819F8101979F838E838E816B
:101D40009F81009769F724C0688579858A859B857E
:101D50000E944900DC01CB019F838E838E819F818D
:101D60009B838A838A819B810197F1F79B838A8376
:101D70000FC069897A898B899C890E944900DC019E
:101D8000CB01888B8889898389818A95F1F789833A
:101D900080E063E040E00E94251869960FB6F89451
:101DA000DEBF0FBECDBFCF91DF910895DF93CF93FC
:101DB000CDB7DEB769970FB6F894DEBF0FBECDBFC3
:101DC000898F80E062E041E00E94251881E0698D02
:101DD0000E94C01980E063E041E00E94251880E085
:101DE00090E0AAEFB3E48D8B9E8BAF8BB88F6D899B
:101DF0007E898F89988D2BEA3AEA4AE250E40E9464
:101E00001F02DC01CB01898B9A8BAB8BBC8B698960
:101E10007A898B899C8920E030E040E85FE30E946A
:101E2000250488231CF481E0888B91C069897A8914
:101E30008B899C8920E030E04FE753E40E94C50382
:101E400018160CF07BC06D897E898F89988D20E0F3
:101E500030E04AE754E40E941903DC01CB018C878F
:101E60009D87AE87BF876C857D858E859F8520E0A9
:101E700030E04AEF54E40E941F02DC01CB01888766
:101E80009987AA87BB87688579858A859B8520E0A5
:101E900030E040E85FE30E94250488232CF481E0D1
:101EA00090E09F838E833FC0688579858A859B8576
:101EB00020E03FEF4FE757E40E94C50318164CF5AA
:101EC0006C857D858E859F8520E030E040E251E481
:101ED0000E941F02DC01CB01BC01CD010E94490020
:101EE000DC01CB019F838E830FC088EC90E09D8343
:101EF0008C838C819D810197F1F79D838C838E81EA
:101F00009F8101979F838E838E819F81009769F7C0
:101F100024C0688579858A859B850E944900DC01FB
:101F2000CB019F838E838E819F819B838A838A814D
:101F30009B810197F1F79B838A830FC069897A8916
:101F40008B899C890E944900DC01CB01888B8889A0
:101F5000898389818A95F1F7898380E063E040E095
:101F60000E94251869960FB6F894DEBF0FBECDBF4C
:101F7000CF91DF910895DF93CF93CDB7DEB7E3978D
:101F80000FB6F894DEBF0FBECDBF9BAB8AAB80E02F
:101F900062E041E00E94251819AA96C189A9282F5C
:101FA00030E08AA99BA9FC01E20FF31F908181E038
:101FB000692F0E94C01989A98F5F89AB80E063E017
:101FC00041E00E94251880E090E0AAEFB3E48DA7DD
:101FD0009EA7AFA7B8AB6DA57EA58FA598A92BEA44
:101FE0003AEA4AE250E40E941F02DC01CB0189A7D1
:101FF0009AA7ABA7BCA769A57AA58BA59CA520E04D
:1020000030E040E85FE30E94250488231CF481E06F
:1020100088A791C069A57AA58BA59CA520E030E092
:102020004FE753E40E94C50318160CF07BC06DA562
:102030007EA58FA598A920E030E04AE754E40E94ED
:102040001903DC01CB018CA39DA3AEA3BFA36CA19C
:102050007DA18EA19FA120E030E04AEF54E40E94D0
:102060001F02DC01CB0188A399A3AAA3BBA368A18B
:1020700079A18AA19BA120E030E040E85FE30E94C3
:10208000250488232CF481E090E09F8F8E8F3FC041
:1020900068A179A18AA19BA120E03FEF4FE757E417
:1020A0000E94C50318164CF56CA17DA18EA19FA1BD
:1020B00020E030E040E251E40E941F02DC01CB014D
:1020C000BC01CD010E944900DC01CB019F8F8E8FA6
:1020D0000FC088EC90E09D8F8C8F8C8D9D8D01972B
:1020E000F1F79D8F8C8F8E8D9F8D01979F8F8E8F97
:1020F0008E8D9F8D009769F724C068A179A18AA170
:102100009BA10E944900DC01CB019F8F8E8F8E8D99
:102110009F8D9B8F8A8F8A8D9B8D0197F1F79B8F67
:102120008A8F0FC069A57AA58BA59CA50E9449003E
:10213000DC01CB0188A788A5898F898D8A95F1F765
:10214000898F80E063E040E00E94251880E090E005
:10215000AAEFB3E48D8B9E8BAF8BB88F6D897E8990
:102160008F89988D2BEA3AEA4AE250E40E941F02D6
:10217000DC01CB01898B9A8BAB8BBC8B69897A890B
:102180008B899C8920E030E040E85FE30E942504D1
:1021900088231CF481E0888B91C069897A898B89B6
:1021A0009C8920E030E04FE753E40E94C5031816F5
:1021B0000CF07BC06D897E898F89988D20E030E09E
:1021C0004AE754E40E941903DC01CB018C879D8708
:1021D000AE87BF876C857D858E859F8520E030E04A
:1021E0004AEF54E40E941F02DC01CB0188879987E3
:1021F000AA87BB87688579858A859B8520E030E042
:1022000040E85FE30E94250488232CF481E090E0FD
:102210009F838E833FC0688579858A859B8520E072
:102220003FEF4FE757E40E94C50318164CF56C8545
:102230007D858E859F8520E030E040E251E40E945C
:102240001F02DC01CB01BC01CD010E944900DC0171
:10225000CB019F838E830FC088EC90E09D838C839D
:102260008C819D810197F1F79D838C838E819F8165
:1022700001979F838E838E819F81009769F724C089
:10228000688579858A859B850E944900DC01CB01A0
:102290009F838E838E819F819B838A838A819B818A
:1022A0000197F1F79B838A830FC069897A898B89AB
:1022B0009C890E944900DC01CB01888B8889898335
:1022C00089818A95F1F7898389A9282F30E08AA925
:1022D0009BA9FC01E20FF31F8081882309F05ECEE9
:1022E000E3960FB6F894DEBF0FBECDBFCF91DF915E
:1022F0000895DF93CF9300D00F92CDB7DEB78A83D6
:102300006B838A8189838B81813019F48981805C18
:102310008983898180680E94F10D0F900F900F9042
:10232000CF91DF910895DF93CF93CDB7DEB7E597D7
:102330000FB6F894DEBF0FBECDBF9CAB8BAB6DABC1
:102340008DA9882F90E0880F991F880F991F880FFB
:10235000991F8AAB8AA980640E94F10D80E090E009
:10236000A0EFB1E48DA79EA7AFA7B8AB6DA57EA5E2
:102370008FA598A92BEA3AEA4AE250E40E941F028C
:10238000DC01CB0189A79AA7ABA7BCA769A57AA551
:102390008BA59CA520E030E040E85FE30E94250487
:1023A00088231CF481E088A791C069A57AA58BA534
:1023B0009CA520E030E04FE753E40E94C5031816C7
:1023C0000CF07BC06DA57EA58FA598A920E030E01C
:1023D0004AE754E40E941903DC01CB018CA39DA3BE
:1023E000AEA3BFA36CA17DA18EA19FA120E030E090
:1023F0004AEF54E40E941F02DC01CB0188A399A399
:10240000AAA3BBA368A179A18AA19BA120E030E087
:1024100040E85FE30E94250488232CF481E090E0EB
:102420009F8F8E8F3FC068A179A18AA19BA120E0D8
:102430003FEF4FE757E40E94C50318164CF56CA117
:102440007DA18EA19FA120E030E040E251E40E94F6
:102450001F02DC01CB01BC01CD010E944900DC015F
:10246000CB019F8F8E8F0FC088EC90E09D8F8C8F5B
:102470008C8D9D8D0197F1F79D8F8C8F8E8D9F8D0B
:1024800001979F8F8E8F8E8D9F8D009769F724C047
:1024900068A179A18AA19BA10E944900DC01CB011E
:1024A0009F8F8E8F8E8D9F8D9B8F8A8F8A8D9B8D18
:1024B0000197F1F79B8F8A8F0FC069A57AA58BA52D
:1024C0009CA50E944900DC01CB0188A788A5898FC3
:1024D000898D8A95F1F7898F19AACCC089A9282FEF
:1024E00030E08BA99CA9FC01E20FF31F80810E94C0
:1024F000D60E80E090E0A0EFB1E48D8B9E8BAF8B89
:10250000B88F6D897E898F89988D2BEA3AEA4AE2E5
:1025100050E40E941F02DC01CB01898B9A8BAB8BAC
:10252000BC8B69897A898B899C8920E030E040E8FE
:102530005FE30E94250488231CF481E0888B91C00E
:1025400069897A898B899C8920E030E04FE753E4E0
:102550000E94C50318160CF07BC06D897E898F8997
:10256000988D20E030E04AE754E40E941903DC0132
:10257000CB018C879D87AE87BF876C857D858E85D7
:102580009F8520E030E04AEF54E40E941F02DC0106
:10259000CB0188879987AA87BB87688579858A85D3
:1025A0009B8520E030E040E85FE30E94250488231B
:1025B0002CF481E090E09F838E833FC0688579850D
:1025C0008A859B8520E03FEF4FE757E40E94C503D3
:1025D00018164CF56C857D858E859F8520E030E052
:1025E00040E251E40E941F02DC01CB01BC01CD019D
:1025F0000E944900DC01CB019F838E830FC088ECD1
:1026000090E09D838C838C819D810197F1F79D8360
:102610008C838E819F8101979F838E838E819F8182
:10262000009769F724C0688579858A859B850E9413
:102630004900DC01CB019F838E838E819F819B8328
:102640008A838A819B810197F1F79B838A830FC0DC
:1026500069897A898B899C890E944900DC01CB01B8
:10266000888B8889898389818A95F1F7898389A9EB
:102670008F5F89AB89A9883008F430CFE5960FB613
:10268000F894DEBF0FBECDBFCF91DF910895DF93E9
:10269000CF9300D00F92CDB7DEB789836A834B8387
:1026A0008A816B810E94791189810E94D60E0F90D8
:1026B0000F900F90CF91DF910895DF93CF93CDB717
:1026C000DEB76E970FB6F894DEBF0FBECDBFCE015A
:1026D00005969E8B8D8BE4E7F1E0F88FEF8BF8E0A9
:1026E000F98FEF89F88D00808F89988D0196988FEA
:1026F0008F8BED89FE8900828D899E8901969E8B44
:102700008D8B998D9150998FE98DEE2351F7CE01E4
:102710000D969B8F8A8FECE6F1E0FD8FEC8FF8E051
:10272000FE8FEC8DFD8D00808C8D9D8D01969D8F93
:102730008C8FEA8DFB8D00828A8D9B8D01969B8FFD
:102740008A8F9E8D91509E8FEE8DEE2351F71C82C5
:102750001B8222C08B819C819C01220F331FCE01E2
:102760000196820F931FFC01349640818B819C81DE
:102770009C01220F331FCE010196820F931FFC0193
:1027800035969081842F692F40E00E944D178B81F0
:102790009C8101969C838B838B819C8184309105E5
:1027A000CCF21A82198222C089819A819C01220F5F
:1027B000331FCE010196820F931FFC013496408196
:1027C00089819A819C01220F331FCE010196820FCD
:1027D000931FFC013D969081842F692F41E00E9458
:1027E0004D1789819A8101969A83898389819A817B
:1027F00084309105CCF26E960FB6F894DEBF0FBE12
:10280000CDBFCF91DF910895DF93CF93CDB7DEB7E2
:10281000CF54D0400FB6F894DEBF0FBECDBFCE016F
:10282000809623969FAF8EAF2397ECE8F1E0259634
:10283000FFAFEEAF2597F0E12696FFAF26972596DE
:10284000EEADFFAD2597008025968EAD9FAD259707
:10285000019625969FAF8EAF25972396EEADFFADDF
:102860002397008223968EAD9FAD239701962396E2
:102870009FAF8EAF239726969FAD269791502696B1
:102880009FAF26972696EFAD2697EE23C1F6CE0191
:10289000C09628969FAF8EAF2897E4E8F1E02A967D
:1028A000FFAFEEAF2A97F8E02B96FFAF2B972A9653
:1028B000EEADFFAD2A9700802A968EAD9FAD2A9788
:1028C00001962A969FAF8EAF2A972896EEADFFAD60
:1028D0002897008228968EAD9FAD2897019628965E
:1028E0009FAF8EAF28972B969FAD2B9791502B962D
:1028F0009FAF2B972B96EFAD2B97EE23C1F6CE0112
:10290000C8962D969FAF8EAF2D97ECE7F1E02F96EE
:10291000FFAFEEAF2F97F8E06096FFAF60972F966E
:10292000EEADFFAD2F9700802F968EAD9FAD2F9708
:1029300001962F969FAF8EAF2F972D96EEADFFADE0
:102940002D9700822D968EAD9FAD2D9701962D96D9
:102950009FAF8EAF2D9760969FAD60979150609618
:102960009FAF60976096EFAD6097EE23C1F61F8E24
:1029700024C08F8D992787FD90959C01220F331FCE
:10298000CE010196820F931FFC01F79640818F8D37
:10299000992787FD90959C01220F331FCE01019648
:1029A000820F931FFC01F8969081842F692F41E0DC
:1029B0000E9425188F8D8F5F8F8F8F8D8430CCF282
:1029C0001E8E86C18E8D882F90E09C01220F331FB2
:1029D000CE010196820F931FFC01F79640818E8DE8
:1029E000882F90E09C01220F331FCE010196820FA9
:1029F000931FFC01F8969081842F692F40E00E947C
:102A000025181D8E3FC180E090E0A0EAB0E4898FD8
:102A10009A8FAB8FBC8F698D7A8D8B8D9C8D20E0CA
:102A200030E04AE753E40E941F02DC01CB018D8BAA
:102A30009E8BAF8BB88F6D897E898F89988D20E0B2
:102A400030E040E85FE30E94250488232CF481E015
:102A500090E09C8B8B8B3FC06D897E898F89988D90
:102A600020E03FEF4FE757E40E94C50318164CF5EE
:102A7000698D7A8D8B8D9C8D20E030E040E251E4B1
:102A80000E941F02DC01CB01BC01CD010E94490064
:102A9000DC01CB019C8B8B8B0FC089E190E09A8B82
:102AA000898B89899A890197F1F79A8B898B8B8910
:102AB0009C8901979C8B8B8B8B899C89009769F7EC
:102AC00014C06D897E898F89988D0E944900DC0130
:102AD000CB019C8B8B8B8B899C89988B8F878F8567
:102AE00098890197F1F7988B8F878D8D882F90E0CB
:102AF0009C01220F331FCE010196820F931FFC0110
:102B0000BF9640818D8D882F90E09C01220F331F4E
:102B1000CE010196820F931FFC01F0969081842FC5
:102B2000692F0E94FD18882309F0A9C080E090E079
:102B3000A0E4B0E48B879C87AD87BE876B857C85DE
:102B40008D859E8520E030E04AE753E40E941F0215
:102B5000DC01CB018F839887A987BA876F8178853D
:102B600089859A8520E030E040E85FE30E942504F3
:102B700088232CF481E090E09E838D833FC06F8199
:102B8000788589859A8520E03FEF4FE757E40E94DA
:102B9000C50318164CF56B857C858D859E8520E0D8
:102BA00030E040E251E40E941F02DC01CB01BC0195
:102BB000CD010E944900DC01CB019E838D830FC0B3
:102BC00089E190E09C838B838B819C810197F1F755
:102BD0009C838B838D819E8101979E838D838D81C4
:102BE0009E81009769F714C06F81788589859A85E1
:102BF0000E944900DC01CB019E838D838D819E81E3
:102C00009A83898389819A810197F1F79A838983CD
:102C10008D8D882F90E09C01220F331FCE010196ED
:102C2000820F931FFC01BF9640818D8D882F90E00D
:102C30009C01220F331FCE010196820F931FFC01CE
:102C4000F0969081842F692F0E94FD18882301F34C
:102C50008D8D282F30E08E8D482F50E0220F331FAE
:102C6000220F331FCE010196820F931F840F951FF1
:102C7000FC017F96808121968FAF219730C08D8D8A
:102C80008F5F8D8F8D8D843008F4BDCE8E8D882F13
:102C900090E09C01220F331FCE010196820F931FFB
:102CA000FC01F79640818E8D882F90E09C01220FC9
:102CB000331FCE010196820F931FFC01F89690817D
:102CC000842F692F41E00E9425188E8D8F5F8E8F93
:102CD0008E8D843008F476CE21961FAE21972196F2
:102CE0008FAD2197C15BDF4F0FB6F894DEBF0FBEEB
:102CF000CDBFCF91DF910895DF93CF9300D000D067
:102D00000F92CDB7DEB789836A834B838981282FE1
:102D100030E03D832C838C819D818130910509F4C5
:102D20003FC02C813D812230310509F46EC08C8179
:102D30009D81009709F0A9C0ABE5B0E0EBE5F0E0BC
:102D400080818F7B8C93A5E5B0E0E5E5F0E08081A4
:102D5000847F8C93A5E5B0E0E5E5F0E090818B8180
:102D6000892B8C93AAE5B0E0EAE5F0E080818064ED
:102D70008C93ABE5B0E0EBE5F0E08081282F8A8111
:102D8000882F90E081709070002496958795079425
:102D9000969587950794982F802D822B8C9375C0DC
:102DA000ABE5B0E0EBE5F0E080818F778C93A5E5B3
:102DB000B0E0E5E5F0E08081837D8C93A5E5B0E0AF
:102DC000E5E5F0E08081282F8B81882F90E0880F47
:102DD000991F880F991F822B8C93AAE5B0E0EAE532
:102DE000F0E0808180688C93ABE5B0E0EBE5F0E04B
:102DF0008081282F8A81882F90E09695982F8827A8
:102E000097958795822B8C9340C0ABE5B0E0EBE5BE
:102E1000F0E080818F7D8C93A4E5B0E0E4E5F0E004
:102E200080818F7B8C93A4E5B0E0E4E5F0E08081C5
:102E3000282F8B81882F90E08170907000249695C8
:102E400087950794969587950794982F802D822BC8
:102E50008C93AAE5B0E0EAE5F0E0808180628C9393
:102E6000ABE5B0E0EBE5F0E08081282F8A81882F88
:102E700090E081709070880F991F82959295907F55
:102E80009827807F9827822B8C930F900F900F901C
:102E90000F900F90CF91DF910895DF93CF9300D0E3
:102EA00000D00F92CDB7DEB789836A834B838981C7
:102EB000282F30E03D832C836C817D81613071054A
:102EC00009F441C08C819D818230910534F42C81BC
:102ED0003D812115310571F0B0C06C817D8162307A
:102EE000710509F459C08C819D818330910509F4E5
:102EF0007CC0A3C0AAE3B0E0EAE3F0E08081482F01
:102F00008A81282F30E081E090E002C0880F991F6D
:102F10002A95E2F7809584238C93AAE3B0E0EAE354
:102F2000F0E08081482F8B81282F30E08A81882F24
:102F300090E0B90102C0660F771F8A95E2F7CB01D6
:102F4000842B8C937AC0A7E3B0E0E7E3F0E08081C4
:102F5000482F8A81282F30E081E090E002C0880F5E
:102F6000991F2A95E2F7809584238C93A7E3B0E01C
:102F7000E7E3F0E08081482F8B81282F30E08A81C1
:102F8000882F90E0B90102C0660F771F8A95E2F79B
:102F9000CB01842B8C9351C0A4E3B0E0E4E3F0E0D8
:102FA0008081482F8A81282F30E081E090E002C0A4
:102FB000880F991F2A95E2F7809584238C93A4E3C8
:102FC000B0E0E4E3F0E08081482F8B81282F30E0EF
:102FD0008A81882F90E0B90102C0660F771F8A9519
:102FE000E2F7CB01842B8C9328C0A1E3B0E0E1E3AE
:102FF000F0E08081482F8A81282F30E081E090E046
:1030000002C0880F991F2A95E2F7809584238C933C
:10301000A1E3B0E0E1E3F0E08081482F8B81282F2D
:1030200030E08A81882F90E0B90102C0660F771FD7
:103030008A95E2F7CB01842B8C930F900F900F9021
:103040000F900F90CF91DF910895DF93CF9300D031
:1030500000D00F92CDB7DEB789836A834B83898115
:10306000282F30E03D832C836C817D816130710598
:1030700009F441C08C819D818230910534F42C810A
:103080003D812115310571F0B0C06C817D816230C8
:10309000710509F459C08C819D818330910509F433
:1030A0007CC0A3C0ABE3B0E0EBE3F0E08081482F4D
:1030B0008A81282F30E081E090E002C0880F991FBC
:1030C0002A95E2F7809584238C93ABE3B0E0EBE3A1
:1030D000F0E08081482F8B81282F30E08A81882F73
:1030E00090E0B90102C0660F771F8A95E2F7CB0125
:1030F000842B8C937AC0A8E3B0E0E8E3F0E0808111
:10310000482F8A81282F30E081E090E002C0880FAC
:10311000991F2A95E2F7809584238C93A8E3B0E069
:10312000E8E3F0E08081482F8B81282F30E08A810E
:10313000882F90E0B90102C0660F771F8A95E2F7E9
:10314000CB01842B8C9351C0A5E3B0E0E5E3F0E024
:103150008081482F8A81282F30E081E090E002C0F2
:10316000880F991F2A95E2F7809584238C93A5E315
:10317000B0E0E5E3F0E08081482F8B81282F30E03C
:103180008A81882F90E0B90102C0660F771F8A9567
:10319000E2F7CB01842B8C9328C0A2E3B0E0E2E3FA
:1031A000F0E08081482F8A81282F30E081E090E094
:1031B00002C0880F991F2A95E2F7809584238C938B
:1031C000A2E3B0E0E2E3F0E08081482F8B81282F7A
:1031D00030E08A81882F90E0B90102C0660F771F26
:1031E0008A95E2F7CB01842B8C930F900F900F9070
:1031F0000F900F90CF91DF910895DF93CF9300D080
:1032000000D000D0CDB7DEB789836A838981282FAB
:1032100030E03D832C834C815D814130510549F183
:103220008C819D818230910534F42C813D81211562
:10323000310561F057C04C815D814230510561F12B
:103240008C819D8183309105D1F14CC0E9E3F0E0A0
:103250008081282F30E08A81882F90E0A90102C068
:10326000559547958A95E2F7CA01582F51705B83AF
:103270003AC0E6E3F0E08081282F30E08A81882F91
:1032800090E0A90102C0559547958A95E2F7CA01D9
:10329000582F51705B8327C0E3E3F0E08081282F33
:1032A00030E08A81882F90E0A90102C055954795AA
:1032B0008A95E2F7CA01582F51705B8314C0E0E38E
:1032C000F0E08081282F30E08A81882F90E0A901EA
:1032D00002C0559547958A95E2F7CA01582F51705B
:1032E0005B8301C002C08B818E838E8126960FB6D0
:1032F000F894DEBF0FBECDBFCF91DF910895DF936D
:10330000CF9300D000D0CDB7DEB789836A8389819F
:10331000282F30E03C832B838B819C818130910569
:10332000D1F02B813C81223031052CF48B819C81A2
:10333000009761F01EC02B813C812230310581F065
:103340008B819C818330910581F013C0EAE3F0E02A
:103350008A8180830EC0E7E3F0E08A81808309C020
:10336000E4E3F0E08A81808304C0E4E3F0E08A8152
:1033700080830F900F900F900F90CF91DF91089561
:10338000DF93CF9300D000D0CDB7DEB789836A83B7
:103390008981282F30E03C832B838B819C81813075
:1033A0009105D1F02B813C81223031052CF48B81A9
:1033B0009C81009761F01EC02B813C812230310539
:1033C00081F08B819C818330910581F013C0EBE308
:1033D000F0E08A8180830EC0E8E3F0E08A81808398
:1033E00009C0E5E3F0E08A81808304C0E2E3F0E015
:1033F0008A8180830F900F900F900F90CF91DF9173
:103400000895DF93CF9300D000D00F92CDB7DEB7F1
:1034100089836A834B838981282F30E03D832C8305
:103420008C819D818130910549F12C813D81223033
:1034300031052CF48C819D81009761F05AC02C815C
:103440003D812230310571F18C819D818330910560
:10345000E9F14FC0ABE3B0E0EBE3F0E08081482F4F
:103460008A81282F30E081E090E0022E02C0880F90
:10347000991F0A94E2F784278C933BC0A8E3B0E03D
:10348000E8E3F0E08081482F8A81282F30E081E056
:1034900090E0022E02C0880F991F0A94E2F7842759
:1034A0008C9327C0A5E3B0E0E5E3F0E08081482FEE
:1034B0008A81282F30E081E090E0022E02C0880F40
:1034C000991F0A94E2F784278C9313C0A2E3B0E01B
:1034D000E2E3F0E08081482F8A81282F30E081E00C
:1034E00090E0022E02C0880F991F0A94E2F7842709
:1034F0008C930F900F900F900F900F90CF91DF91C2
:103500000895DF93CF93CDB7DEB780E067E041E069
:103510000E94251880E066E040E00E942518CF91C7
:10352000DF910895DF93CF93CDB7DEB780E067E0FA
:1035300040E00E94251880E066E040E00E942518E7
:10354000CF91DF910895DF93CF93CDB7DEB7A7E298
:10355000B0E0E7E2F0E080818F738C93A7E2B0E007
:10356000E7E2F0E0808180648C93E6E2F0E0108294
:10357000A6E2B0E0E6E2F0E080818C93A6E2B0E063
:10358000E6E2F0E0808188608C93A6E2B0E0E6E2BB
:10359000F0E0808183608C93A6E2B0E0E6E2F0E0A8
:1035A000808180688C93CF91DF910895DF93CF93D2
:1035B0000F92CDB7DEB78983A7E2B0E0E7E2F0E093
:1035C0008081807E8C93A7E2B0E0E7E2F0E090811A
:1035D0008981892B8C930F90CF91DF910895DF9390
:1035E000CF930F92CDB7DEB789838981882341F4C9
:1035F000A6E2B0E0E6E2F0E080818F7D8C9307C028
:10360000A6E2B0E0E6E2F0E0808180628C930F9069
:10361000CF91DF910895DF93CF930F92CDB7DEB7AF
:103620008983A0E5B0E0E0E5F0E080818F718C93C4
:10363000A0E5B0E0E0E5F0E08081282F8981882FC7
:1036400090E0880F991F82959295907F9827807FB0
:103650009827822B8C930F90CF91DF910895DF9361
:10366000CF93CDB7DEB7A6E2B0E0E6E2F0E080812E
:1036700080648C93CF91DF910895DF93CF930F9265
:10368000CDB7DEB7E6E2F0E0808182958F70817081
:103690008983A6E2B0E0E6E2F0E0808180618C936D
:1036A00089810F90CF91DF910895DF93CF9300D060
:1036B000CDB7DEB7E4E2F0E08081882F90E09A8316
:1036C0008983E5E2F0E08081882F90E0982F8827B9
:1036D0009C0189819A81822B932B9A83898389818A
:1036E0009A810F900F90CF91DF910895DF93CF9340
:1036F0000F92CDB7DEB78983E0E2F0E082E080830D
:10370000A1E2B0E0E1E2F0E080818E7F8C93A1E263
:10371000B0E0E1E2F0E080818D7F8C93A1E2B0E047
:10372000E1E2F0E0808187708C93E1E2F0E0898152
:10373000880F8083A6E5B0E0E6E5F0E080818E7F2B
:103740008C93A6E5B0E0E6E5F0E0808184608C93A0
:103750000F90CF91DF910895DF93CF930F92CDB764
:10376000DEB78983A1E2B0E0E1E2F0E0808187701A
:103770008C93E1E2F0E08981880F8083A6E5B0E0D8
:10378000E6E5F0E080818E7F8C93A6E5B0E0E6E58B
:10379000F0E0808184608C930F90CF91DF91089549
:1037A000DF93CF93CDB7DEB760970FB6F894DEBF47
:1037B0000FBECDBF188A1F86A6E5B0E0E6E5F0E0B3
:1037C000808180628C93E6E5F0E0808188230CF4B0
:1037D00076C080E090E0A0E8BFE38B879C87AD8750
:1037E000BE876B857C858D859E8520E030E04AEF25
:1037F00054E40E941F02DC01CB018F839887A987C4
:10380000BA876F81788589859A8520E030E040E825
:103810005FE30E94250488232CF481E090E09E83DE
:103820008D833FC06F81788589859A8520E03FEF41
:103830004FE757E40E94C50318164CF56B857C854D
:103840008D859E8520E030E040E251E40E941F0219
:10385000DC01CB01BC01CD010E944900DC01CB01A0
:103860009E838D830FC088EC90E09C838B838B813B
:103870009C810197F1F79C838B838D819E810197B9
:103880009E838D838D819E81009769F714C06F811F
:10389000788589859A850E944900DC01CB019E8349
:1038A0008D838D819E819A83898389819A810197F5
:1038B000F1F79A8389838F858F5F8F8784CFA6E501
:1038C000B0E0E6E5F0E080818F7D8C93E1E2F0E00E
:1038D0008081882F90E0887F90708830910511F06A
:1038E00082E0888B888960960FB6F894DEBF0FBEA1
:1038F000CDBFCF91DF910895DF93CF93CDB7DEB7E2
:1039000060970FB6F894DEBF0FBECDBF188A1F8632
:10391000A6E5B0E0E6E5F0E0808180628C93E6E524
:10392000F0E0808188230CF476C080E090E0A0E88D
:10393000BFE38B879C87AD87BE876B857C858D8534
:103940009E8520E030E04AEF54E40E941F02DC0133
:10395000CB018F839887A987BA876F8178858985FE
:103960009A8520E030E040E85FE30E942504882348
:103970002CF481E090E09E838D833FC06F81788539
:1039800089859A8520E03FEF4FE757E40E94C50301
:1039900018164CF56B857C858D859E8520E030E082
:1039A00040E251E40E941F02DC01CB01BC01CD01C9
:1039B0000E944900DC01CB019E838D830FC088ECFF
:1039C00090E09C838B838B819C810197F1F79C8392
:1039D0008B838D819E8101979E838D838D819E81B6
:1039E000009769F714C06F81788589859A850E9450
:1039F0004900DC01CB019E838D838D819E819A835A
:103A0000898389819A810197F1F79A8389838F85C8
:103A10008F5F8F8784CFA6E5B0E0E6E5F0E0808198
:103A20008F7D8C93E1E2F0E08081882F90E08170BF
:103A30009070882311F083E0888BA6E5B0E0E6E57E
:103A4000F0E0808180688C93888960960FB6F89446
:103A5000DEBF0FBECDBFCF91DF910895DF93CF932F
:103A60000F92CDB7DEB71982A6E5B0E0E6E5F0E04B
:103A7000808180628C9389810F90CF91DF9108952E
:103A8000DF93CF93CDB7DEB763970FB6F894DEBF61
:103A90000FBECDBF8A8B198AE3E2F0E08A89882FB6
:103AA00090E0880F991F81608083A6E5B0E0E6E58D
:103AB000F0E0808180688C93188A1F8677C080E050
:103AC00090E0A0E8BFE38B879C87AD87BE876B85BE
:103AD0007C858D859E8520E030E04AEF54E40E948D
:103AE0001F02DC01CB018F839887A987BA876F817A
:103AF000788589859A8520E030E040E85FE30E9480
:103B0000250488232CF481E090E09E838D833FC0C0
:103B10006F81788589859A8520E03FEF4FE757E4EC
:103B20000E94C50318164CF56B857C858D859E8596
:103B300020E030E040E251E40E941F02DC01CB01B2
:103B4000BC01CD010E944900DC01CB019E838D8325
:103B50000FC088EC90E09C838B838B819C810197C4
:103B6000F1F79C838B838D819E8101979E838D834A
:103B70008D819E81009769F714C06F817885898552
:103B80009A850E944900DC01CB019E838D838D8143
:103B90009E819A83898389819A810197F1F79A831B
:103BA00089838F8598890196988B8F87E6E5F0E069
:103BB000808188233CF08F8598892EE4803292079B
:103BC00008F47DCF8F8598892EE48032920719F40E
:103BD00084E08B8B0DC0E1E2F0E08081882F90E0E3
:103BE00081709070882311F085E0898B29892B8B57
:103BF0008B8963960FB6F894DEBF0FBECDBFCF9111
:103C0000DF910895DF93CF93CDB7DEB763970FB6FB
:103C1000F894DEBF0FBECDBF8A8B198AE3E2F0E0D5
:103C20008A89880F8083A6E5B0E0E6E5F0E0808130
:103C300080688C93188A1F8677C080E090E0A0E8A7
:103C4000BFE38B879C87AD87BE876B857C858D8521
:103C50009E8520E030E04AEF54E40E941F02DC0120
:103C6000CB018F839887A987BA876F8178858985EB
:103C70009A8520E030E040E85FE30E942504882335
:103C80002CF481E090E09E838D833FC06F81788526
:103C900089859A8520E03FEF4FE757E40E94C503EE
:103CA00018164CF56B857C858D859E8520E030E06F
:103CB00040E251E40E941F02DC01CB01BC01CD01B6
:103CC0000E944900DC01CB019E838D830FC088ECEC
:103CD00090E09C838B838B819C810197F1F79C837F
:103CE0008B838D819E8101979E838D838D819E81A3
:103CF000009769F714C06F81788589859A850E943D
:103D00004900DC01CB019E838D838D819E819A8346
:103D1000898389819A810197F1F79A8389838F85B5
:103D200098890196988B8F87E6E5F0E0808188235B
:103D30003CF08F8598892EE48032920708F47DCF7D
:103D4000A6E5B0E0E6E5F0E0808180688C938F85A1
:103D500098892EE48032920719F484E08B8B0DC091
:103D6000E1E2F0E08081882F90E0817090708823FC
:103D700011F085E0898B29892B8B8B8963960FB68F
:103D8000F894DEBF0FBECDBFCF91DF910895DF93D2
:103D9000CF93CDB7DEB763970FB6F894DEBF0FBEF3
:103DA000CDBF8A8B198AE3E2F0E08A898083A6E599
:103DB000B0E0E6E5F0E0808180688C93188A1F8689
:103DC00077C080E090E0A0E8BFE38B879C87AD8759
:103DD000BE876B857C858D859E8520E030E04AEF2F
:103DE00054E40E941F02DC01CB018F839887A987CE
:103DF000BA876F81788589859A8520E030E040E830
:103E00005FE30E94250488232CF481E090E09E83E8
:103E10008D833FC06F81788589859A8520E03FEF4B
:103E20004FE757E40E94C50318164CF56B857C8557
:103E30008D859E8520E030E040E251E40E941F0223
:103E4000DC01CB01BC01CD010E944900DC01CB01AA
:103E50009E838D830FC088EC90E09C838B838B8145
:103E60009C810197F1F79C838B838D819E810197C3
:103E70009E838D838D819E81009769F714C06F8129
:103E8000788589859A850E944900DC01CB019E8353
:103E90008D838D819E819A83898389819A810197FF
:103EA000F1F79A8389838F8598890196988B8F87FC
:103EB000E6E5F0E0808188233CF08F8598892EE448
:103EC0008032920708F47DCF8F8598892EE4803266
:103ED000920719F484E08B8B0DC0E1E2F0E0808161
:103EE000882F90E081709070882311F086E0898B94
:103EF00029892B8B8B8963960FB6F894DEBF0FBE92
:103F0000CDBFCF91DF910895DF93CF93CDB7DEB7CB
:103F100064970FB6F894DEBF0FBECDBF9B8B8A8B24
:103F2000198A188A1F86E6E5F0E08081881F8827B5
:103F3000881F813019F421E02C8BBBC0A6E5B0E0CE
:103F4000E6E5F0E0808180688C9377C080E090E0C7
:103F5000A0E8BFE38B879C87AD87BE876B857C8598
:103F60008D859E8520E030E04AEF54E40E941F02D8
:103F7000DC01CB018F839887A987BA876F81788509
:103F800089859A8520E030E040E85FE30E942504BF
:103F900088232CF481E090E09E838D833FC06F8165
:103FA000788589859A8520E03FEF4FE757E40E94A6
:103FB000C50318164CF56B857C858D859E8520E0A4
:103FC00030E040E251E40E941F02DC01CB01BC0161
:103FD000CD010E944900DC01CB019E838D830FC07F
:103FE00088EC90E09C838B838B819C810197F1F717
:103FF0009C838B838D819E8101979E838D838D8190
:104000009E81009769F714C06F81788589859A85AC
:104010000E944900DC01CB019E838D838D819E81AE
:104020009A83898389819A810197F1F79A83898399
:104030008F8598890196988B8F87E6E5F0E08081DF
:1040400088233CF08F8598892EE48032920708F40B
:104050007DCF8F8598892EE48032920719F484E011
:104060008C8B27C0E6E5F0E08081881F8827881FB9
:10407000813061F4E1E2F0E08081882F90E081708E
:104080009070882371F086E0898B0BC0E1E2F0E04C
:104090008081882F90E081709070882311F081E0FA
:1040A000898BE3E2F0E08081EA89FB8980832989BA
:1040B0002C8B8C8964960FB6F894DEBF0FBECDBFF3
:1040C000CF91DF910895DF93CF9300D00F92CDB7BA
:1040D000DEB79A8389830F900F900F90CF91DF9175
:1040E0000895DF93CF9300D0CDB7DEB78983898160
:1040F000813041F4A6E5B0E0E6E5F0E0808180643F
:104100008C9307C0A6E5B0E0E6E5F0E080818F7B08
:104110008C930F900F90CF91DF910895DF93CF9301
:10412000CDB7DEB72E970FB6F894DEBF0FBECDBF6A
:1041300080E067E041E00E944D1780E066E041E0EA
:104140000E944D1780E061E040E00E944D1780E042
:1041500065E041E00E944D170E94E00C0E945D1353
:104160000E94A31A80E060E040E00E944D1780E0CA
:1041700064E041E00E944D1780E090E0A0E0B0E0F4
:104180008B879C87AD87BE8780E090E0A0E0B0E0A1
:104190008F839887A987BA871E8280E090E0A0E08D
:1041A000B0E08A839B83AC83BD830E94560B0E9440
:1041B000620B0E94041489838981882341F08981DC
:1041C0000E94D60E8981882F90E00E94DD0980E050
:1041D0000E94D61A0E94C00BE8CF2F923F924F92B6
:1041E0005F926F927F928F929F92AF92BF92CF9287
:1041F000DF92EF92FF920F931F93CF93DF93CDB790
:10420000DEB7CA1BDB0B0FB6F894DEBF0FBECDBF07
:1042100009942A88398848885F846E847D848C84D8
:104220009B84AA84B984C884DF80EE80FD800C81E1
:104230001B81AA81B981CE0FD11D0FB6F894DEBFC4
:0C4240000FBECDBFED010895F894FFCF34
:10424C000000000000000000000102020303030351
:10425C00040404040404040405050505050505050A
:10426C0005050505050505050606060606060606EA
:10427C0006060606060606060606060606060606D2
:10428C0006060606060606060707070707070707BA
:10429C0007070707070707070707070707070707A2
:1042AC000707070707070707070707070707070792
:1042BC000707070707070707070707070707070782
:1042CC00070707070707070708080808080808086A
:1042DC000808080808080808080808080808080852
:1042EC000808080808080808080808080808080842
:1042FC000808080808080808080808080808080832
:10430C000808080808080808080808080808080821
:10431C000808080808080808080808080808080811
:10432C000808080808080808080808080808080801
:10433C0008080808080808080808080808080808F1
:10434C000808080808080808303137330204020549
:10435C000206020702000201020202030204020525
:10436C000206020702000201020202033132333458
:0C437C0035363738414243444445463052
:00000001FF
